:0200000280007C
:1000000078080020E9010800E5010800E501080082
:10001000E5010800E5010800E50108000000000016
:10002000000000000000000000000000E5010800E2
:10003000E501080000000000E5010800E5010800F6
:10004000E5010800E5010800E5010800E5010800F8
:10005000E5010800E5010800E5010800E5010800E8
:10006000E5010800E501080000000000E5010800C6
:10007000E5010800E5010800E501080000000000B6
:1000800000000000E5010800E5010800E5010800A6
:10009000E5010800E5010800E5010800E5010800A8
:1000A000E501080000000000E5010800E501080086
:1000B000E5010800E5010800E5010800E501080088
:1000C000E5010800E5010800E5010800E501080078
:1000D000E5010800E5010800E5010800E501080068
:1000E000E5010800E5010800E5010800E501080058
:1000F000E501080010B5054C237833B9044B13B162
:100100000448AFF300800123237010BD34040020A5
:1001100000000000EC0508000C4B43B10C4810B582
:100120000C49AFF300800C48036823B910BD0A489E
:10013000036833B97047094B002BF7D0BDE8104076
:100140001847064B002BF5D0184700BF00000000F1
:10015000EC05080038040020EC0508000000000051
:100160000C4A136943F0006313610B4B01221A60C0
:1001700000225A605A6842F400425A6003F1447304
:1001800003F5773303F28323A3FB0030C00C034B4A
:100190001860704700060E40000008405004002020
:1001A000064A136843F004031360054B196813698A
:1001B000B3FBF1F38342FAD3704700BF000008405D
:1001C00050040020F8B5051E08DD00244FF47A77AE
:1001D000034E3846B0470134A542FAD1F8BD00BFFE
:1001E000A1010800FEE7000008B5184B184A9A4222
:1001F00010D0184B154A9A420CD2013B9B1A23F09F
:10020000030304331344124951F8040B42F8040B5E
:100210009A42F9D1104B114A9A420AD2013B9B1AD9
:1002200023F0030304331344002142F8041B9342D8
:10023000FBD10B4B23F0604323F07F03094A93600B
:10024000094B9847094B9847FEE700BF0000002084
:10025000EC05080034040020780400203404002059
:100260000000080000ED00E0F503080005030800A9
:100270004FF480631C4A136002F5007213601B4B3D
:100280001B6A13F0807F07D1194A184B1A621A466D
:10029000936E13F0010FFBD0164A144B1A621A46E4
:1002A000936E13F4803FFBD0104A136B23F00303CB
:1002B00043F001031363936E13F0080FFBD00E4A53
:1002C0000A4B9A621A46936E13F0020FFBD001227A
:1002D000064B1A631A46936E13F0080FFBD0074AB9
:1002E000074B1A60704700BF000A0E4000060E4020
:1002F0000908370009083701013F0D20001BB7002E
:100300000000002008B5084B98470848084B98475C
:100310004FF41650074B9847074E084D084C30468F
:10032000A847C820A047FAE771020800001BB700E1
:100330006101080045030800C005080051030800DA
:10034000C501080008B5014B984708BD85030800A2
:100350002DE9F0410646451E0024084FDFF82080B5
:1003600003E015F8010FC04701343046B847A042FA
:10037000F7D80A20024B9847BDE8F08145040800F1
:10038000E1030800124B1A6942F400621A61114A33
:100390001149C2F8E4104FF44071516051661A6976
:1003A00042F480721A6103F500730C221A60502225
:1003B0001A604FF400625A600001084AB2FBF0F084
:1003C00018621A46536913F0020FFBD0704700BF42
:1003D00000060E40000E0E40004F4950001BB700B3
:1003E000034BD8611A46536913F4007FFBD0704762
:1003F00000080E4070B50F4E0F4D761BB61018BF9B
:10040000002405D0013455F8043B9847A642F9D1A1
:100410000A4E0B4D00F0D8F8761BB61018BF00241A
:1004200006D0013455F8043B9847A642F9D170BD77
:1004300070BD00BFD4050800D4050800DC05080025
:10044000D405080020F0030110F00300C0F1000003
:1004500051F8043B00F1040C4FEACC0C6FF00002A1
:100460001CBF22FA0CF213434FF0010C4CEA0C2C87
:100470004CEA0C4CA3EB0C0222EA030212EACC1267
:1004800004BF51F8043B0430F4D0C2F1000102EA89
:100490000102B2FA82F2C2F11F0200EBD2007047F1
:1004A000024B13B1024800F005B87047000000008D
:1004B000C1040800002301461A46184600F01EB881
:1004C00038B50A4C0A4D641BA4100AD004F18043CD
:1004D000013B05EB8305013C55F804399847002C96
:1004E000F9D1BDE8384000F079B800BFEC0508004C
:1004F000E8050800704700BF704700BF2DE9F843CA
:100500002C4D0646286898460F469146FFF7F2FFA5
:10051000294B1C68D4F84831002B3ED05A681F2A5A
:100520001CDC02F1010E76B1012103EB8204C4F858
:100530008890D3F8880191400843022EC3F88801BF
:10054000C4F8088123D00232C3F804E0286843F8D5
:100550002270FFF7D1FF0020BDE8F883174B0BB3E3
:100560004FF4C870AFF300800346D8B10020D4F830
:1005700048114FF0010E586019600246C4F8483126
:10058000C3F88801C3F88C01002EDCD0CCE7D3F887
:100590008C010143C3F88C11D5E704F5A673C4F8A8
:1005A0004831BBE72868FFF7A7FF4FF0FF30BDE8F1
:1005B000F88300BF30040020C405080000000000DC
:1005C0004142430008000020F8B500BFF8BC08BC59
:1005D0009E467047A104080019010800F8B500BF45
:0C05E000F8BC08BC9E467047F5000800FF
:1005EC0000093D000000000000000000F4020020A3
:1005FC005C030020C4030020000000000000000089
:10060C0000000000000000000000000000000000DE
:10061C0000000000000000000000000000000000CE
:10062C0000000000000000000000000000000000BE
:10063C0000000000000000000000000000000000AE
:10064C00000000000000000000000000000000009E
:10065C00000000000000000000000000000000008E
:10066C00000000000000000000000000000000007E
:10067C00000000000000000000000000000000006E
:10068C00000000000000000000000000000000005E
:10069C0001000000000000000E33CDAB34126DE6FB
:1006AC00ECDE05000B000000000000000000000064
:1006BC00000000000000000000000000000000002E
:1006CC00000000000000000000000000000000001E
:1006DC00000000000000000000000000000000000E
:1006EC0000000000000000000000000000000000FE
:040A1C00540400205E
:040000038000000079
:00000001FF
