S01C0000335838455F504D435F53797374656D436C6F636B2E73726563F1
S2140800007808002065010800610108006101080001
S2140800106101080061010800610108000000000095
S2140800200000000000000000000000006101080059
S2140800306101080000000000610108006101080075
S21408004061010800610108006101080061010800FB
S21408005061010800610108006101080061010800EB
S2140800606101080061010800000000006101080045
S2140800706101080061010800610108000000000035
S2140800800000000061010800610108006101080025
S21408009061010800610108006101080061010800AB
S2140800A06101080000000000610108006101080005
S2140800B0610108006101080061010800610108008B
S2140800C0610108006101080061010800610108007B
S2140800D0610108006101080061010800610108006B
S2140800E0610108006101080061010800610108005B
S2140800F06101080010B5054C237833B9044B13B1D9
S2140801000448AFF300800123237010BD3404002098
S21408011000000000340408000C4B43B10C4810B52E
S2140801200C49AFF300800C48036823B910BD0A4891
S214080130036833B97047094B002BF7D0BDE8104069
S2140801401847064B002BF5D0184700BF00000000E4
S21408015034040800380400203404080000000000B6
S214080160FEE7000008B5184B184A9A4210D0184BFC
S214080170154A9A420CD2013B9B1A23F00303043318
S2140801801344124951F8040B42F8040B9A42F9D169
S214080190104B114A9A420AD2013B9B1A23F00303DA
S2140801A004331344002142F8041B9342FBD10B4B43
S2140801B023F0604323F07F03094A9360094B98476E
S2140801C0094B9847FEE700BF0000002034040800EB
S2140801D034040020740400203404002000000800C2
S2140801E000ED00E09D020800910208004FF48063CD
S2140801F0204A136002F5007213601F4B1B6A13F047
S214080200807F07D11D4A1C4B1A621A46936E13F05C
S214080210010FFBD01A4A184B1A621A46936E13F44B
S214080220803FFBD0144A136B23F0030343F001030B
S2140802301363936E13F0080FFBD0124A0E4B9A62A4
S2140802401A46936E13F0020FFBD011220A4B1A635C
S2140802501A46936E13F0080FFBD01222064B1A6349
S2140802601A46936E13F0080FFBD0074A074B1A601E
S214080270704700BF000A0E4000060E400908370007
S21408028009083701013F0D2000BD010500000020C8
S21408029008B5014B9847FEE7ED01080070B50F4E0C
S2140802A00F4D761BB61018BF002405D0013455F83C
S2140802B0043B9847A642F9D10A4E0B4D00F0A8F821
S2140802C0761BB61018BF002406D0013455F8043B38
S2140802D09847A642F9D170BD70BD00BF1C0408003F
S2140802E01C040800240408001C040800024B13B170
S2140802F0024800F005B87047000000000D0308002B
S214080300002301461A46184600F01EB838B50A4CAF
S2140803100A4D641BA4100AD004F18043013B05EB88
S2140803208305013C55F804399847002CF9D1BDE8F7
S214080330384000F077B800BF3404080030040800DE
S214080340704700BF704700BF2DE9F8432C4D06469E
S214080350286898460F469146FFF7F2FF294B1C6817
S214080360D4F84831002B3ED05A681F2A1CDC02F10C
S214080370010E76B1012103EB8204C4F88890D3F805
S214080380880191400843022EC3F88801C4F8088102
S21408039023D00232C3F804E0286843F82270FFF737
S2140803A0D1FF0020BDE8F883174B0BB34FF4C87095
S2140803B0AFF300800346D8B10020D4F848114FF0B8
S2140803C0010E586019600246C4F84831C3F888011F
S2140803D0C3F88C01002EDCD0CCE7D3F88C0101439F
S2140803E0C3F88C11D5E704F5A673C4F84831BBE703
S2140803F02868FFF7A7FF4FF0FF30BDE8F88300BF77
S214080400300400200C04080000000000080000204B
S214080410F8B500BFF8BC08BC9E467047ED02080059
S21408042019010800F8B500BFF8BC08BC9E4670471E
S208080430F5000800BE
S21408043400093D000000000000000000F40200204F
S2140804445C030020C4030020000000000000000035
S214080454000000000000000000000000000000008B
S214080464000000000000000000000000000000007B
S214080474000000000000000000000000000000006B
S214080484000000000000000000000000000000005B
S214080494000000000000000000000000000000004B
S2140804A4000000000000000000000000000000003B
S2140804B4000000000000000000000000000000002B
S2140804C4000000000000000000000000000000001B
S2140804D4000000000000000000000000000000000B
S2140804E401000000000000000E33CDAB34126DE6A8
S2140804F4ECDE05000B000000000000000000000011
S21408050400000000000000000000000000000000DA
S21408051400000000000000000000000000000000CA
S21408052400000000000000000000000000000000BA
S21408053400000000000000000000000000000000AA
S208080864500400200F
S804080000F3
