S01A0000335838455F4558414D504C455F426C696E6B2E7372656348
S21408000078080020E9010800E5010800E501080075
S214080010E5010800E5010800E50108000000000009
S214080020000000000000000000000000E5010800D5
S214080030E501080000000000E5010800E5010800E9
S214080040E5010800E5010800E5010800E5010800EB
S214080050E5010800E5010800E5010800E5010800DB
S214080060E5010800E501080000000000E5010800B9
S214080070E5010800E5010800E501080000000000A9
S21408008000000000E5010800E5010800E501080099
S214080090E5010800E5010800E5010800E50108009B
S2140800A0E501080000000000E5010800E501080079
S2140800B0E5010800E5010800E5010800E50108007B
S2140800C0E5010800E5010800E5010800E50108006B
S2140800D0E5010800E5010800E5010800E50108005B
S2140800E0E5010800E5010800E5010800E50108004B
S2140800F0E501080010B5054C237833B9044B13B155
S2140801000448AFF300800123237010BD3404002098
S21408011000000000080508000C4B43B10C4810B559
S2140801200C49AFF300800C48036823B910BD0A4891
S214080130036833B97047094B002BF7D0BDE8104069
S2140801401847064B002BF5D0184700BF00000000E4
S214080150080508003804002008050800000000000C
S2140801600C4A136943F0006313610B4B01221A60B3
S21408017000225A605A6842F400425A6003F14473F7
S21408018003F5773303F28323A3FB0030800C034B7D
S2140801901860704700060E40000008405004002013
S2140801A0064A136843F004031360054B196813697D
S2140801B0B3FBF1F38342FAD3704700BF0000084050
S2140801C050040020F8B5051E08DD00244FF47A77A1
S2140801D0034E3846B0470134A542FAD1F8BD00BFF1
S2140801E0A1010800FEE7000008B5184B184A9A4215
S2140801F010D0184B154A9A420CD2013B9B1A23F092
S214080200030304331344124951F8040B42F8040B51
S2140802109A42F9D1104B114A9A420AD2013B9B1ACC
S21408022023F0030304331344002142F8041B9342CB
S214080230FBD10B4B23F0604323F07F03094A9360FE
S214080240094B9847094B9847FEE700BF0000002077
S2140802500805080034040020780400203404002030
S2140802600000080000ED00E0710308000503080020
S2140802704FF480631C4A136002F5007213601B4B30
S2140802801B6A13F0807F07D1194A184B1A621A4660
S214080290936E13F0010FFBD0164A144B1A621A46D7
S2140802A0936E13F4803FFBD0104A136B23F00303BE
S2140802B043F001031363936E13F0080FFBD00E4A46
S2140802C00A4B9A621A46936E13F0020FFBD001226D
S2140802D0064B1A631A46936E13F0080FFBD0074AAC
S2140802E0074B1A60704700BF000A0E4000060E4013
S2140802F00908370009083701013F0D20001BB70021
S2140803000000002008B5134B98471348134B98472E
S214080310134A136943F480531361124B124AC3F805
S214080320E4204FF000621A605A661A61C3F8A020EB
S2140803301C464FF4FA760D4DA36B23F00063A363B7
S2140803403046A847A36B43F00063A3633046A8472C
S214080350F2E700BF71020800808D5B0061010800AB
S21408036000060E4000100E40004F4950C501080018
S21408037070B50F4E0F4D761BB61018BF002405D06B
S214080380013455F8043B9847A642F9D10A4E0B4D5E
S21408039000F0A8F8761BB61018BF002406D0013463
S2140803A055F8043B9847A642F9D170BD70BD00BF0A
S2140803B0F0040800F0040800F8040800F004080038
S2140803C0024B13B1024800F005B870470000000061
S2140803D0E1030800002301461A46184600F01EB836
S2140803E038B50A4C0A4D641BA4100AD004F18043A1
S2140803F0013B05EB8305013C55F804399847002C6A
S214080400F9D1BDE8384000F077B800BF0805080005
S21408041004050800704700BF704700BF2DE9F84381
S2140804202C4D0646286898460F469146FFF7F2FF79
S214080430294B1C68D4F84831002B3ED05A681F2A2E
S2140804401CDC02F1010E76B1012103EB8204C4F82C
S2140804508890D3F8880191400843022EC3F8880193
S214080460C4F8088123D00232C3F804E0286843F8A9
S2140804702270FFF7D1FF0020BDE8F883174B0BB3B7
S2140804804FF4C870AFF300800346D8B10020D4F804
S21408049048114FF0010E586019600246C4F84831FA
S2140804A0C3F88801C3F88C01002EDCD0CCE7D3F85B
S2140804B08C010143C3F88C11D5E704F5A673C4F87C
S2140804C04831BBE72868FFF7A7FF4FF0FF30BDE8C5
S2140804D0F88300BF30040020E00408000000000095
S2140804E008000020F8B500BFF8BC08BC9E46704758
S2140804F0C103080019010800F8B500BFF8BC08BC1D
S20C0805009E467047F50008004E
S21408050800093D000000000000000000F40200207A
S2140805185C030020C4030020000000000000000060
S21408052800000000000000000000000000000000B6
S21408053800000000000000000000000000000000A6
S2140805480000000000000000000000000000000096
S2140805580000000000000000000000000000000086
S2140805680000000000000000000000000000000076
S2140805780000000000000000000000000000000066
S2140805880000000000000000000000000000000056
S2140805980000000000000000000000000000000046
S2140805A80000000000000000000000000000000036
S2140805B801000000000000000E33CDAB34126DE6D3
S2140805C8ECDE05000B00000000000000000000003C
S2140805D80000000000000000000000000000000006
S2140805E800000000000000000000000000000000F6
S2140805F800000000000000000000000000000000E6
S21408060800000000000000000000000000000000D5
S2080809385404002036
S804080000F3
